{
  "contractName": "Proposal",
  "abi": [
    {
      "anonymous": false,
      "inputs": [
        {
          "indexed": true,
          "internalType": "uint256",
          "name": "proposalId",
          "type": "uint256"
        },
        {
          "indexed": true,
          "internalType": "address",
          "name": "from",
          "type": "address"
        },
        {
          "indexed": false,
          "internalType": "uint256",
          "name": "vote",
          "type": "uint256"
        }
      ],
      "name": "VoteCasted",
      "type": "event"
    },
    {
      "constant": true,
      "inputs": [],
      "name": "VOTE_FEE",
      "outputs": [
        {
          "internalType": "uint256",
          "name": "",
          "type": "uint256"
        }
      ],
      "payable": false,
      "stateMutability": "view",
      "type": "function"
    },
    {
      "constant": true,
      "inputs": [],
      "name": "proposalId",
      "outputs": [
        {
          "internalType": "uint256",
          "name": "",
          "type": "uint256"
        }
      ],
      "payable": false,
      "stateMutability": "view",
      "type": "function"
    },
    {
      "constant": true,
      "inputs": [],
      "name": "votesForNo",
      "outputs": [
        {
          "internalType": "uint256",
          "name": "",
          "type": "uint256"
        }
      ],
      "payable": false,
      "stateMutability": "view",
      "type": "function"
    },
    {
      "constant": true,
      "inputs": [],
      "name": "votesForYes",
      "outputs": [
        {
          "internalType": "uint256",
          "name": "",
          "type": "uint256"
        }
      ],
      "payable": false,
      "stateMutability": "view",
      "type": "function"
    },
    {
      "constant": false,
      "inputs": [
        {
          "internalType": "uint256",
          "name": "_vote",
          "type": "uint256"
        }
      ],
      "name": "vote",
      "outputs": [],
      "payable": true,
      "stateMutability": "payable",
      "type": "function"
    },
    {
      "constant": true,
      "inputs": [
        {
          "internalType": "address",
          "name": "_user",
          "type": "address"
        }
      ],
      "name": "getVote",
      "outputs": [
        {
          "internalType": "uint256",
          "name": "",
          "type": "uint256"
        }
      ],
      "payable": false,
      "stateMutability": "view",
      "type": "function"
    },
    {
      "constant": false,
      "inputs": [],
      "name": "clean",
      "outputs": [],
      "payable": false,
      "stateMutability": "nonpayable",
      "type": "function"
    }
  ],
  "bytecode": "0x608060405234801561001057600080fd5b5061047d806100206000396000f3fe6080604052600436106100705760003560e01c80637ef4aa7b1161004e5780637ef4aa7b146100f95780638d337b8114610124578063a07d03dd14610189578063fc4333cd146101b457610070565b80630121b93f146100755780632dfca445146100a35780636f6cbee4146100ce575b600080fd5b6100a16004803603602081101561008b57600080fd5b81019080803590602001909291905050506101cb565b005b3480156100af57600080fd5b506100b8610388565b6040518082815260200191505060405180910390f35b3480156100da57600080fd5b506100e361038e565b6040518082815260200191505060405180910390f35b34801561010557600080fd5b5061010e610394565b6040518082815260200191505060405180910390f35b34801561013057600080fd5b506101736004803603602081101561014757600080fd5b81019080803573ffffffffffffffffffffffffffffffffffffffff16906020019092919050505061039f565b6040518082815260200191505060405180910390f35b34801561019557600080fd5b5061019e6103fa565b6040518082815260200191505060405180910390f35b3480156101c057600080fd5b506101c9610400565b005b60018114806101da5750600281145b61022f576040517f08c379a00000000000000000000000000000000000000000000000000000000081526004018080602001828103825260248152602001806104256024913960400191505060405180910390fd5b662386f26fc1000034146102ab576040517f08c379a000000000000000000000000000000000000000000000000000000000815260040180806020018281038252601e8152602001807f596f75206d7573742073656e6420302e30312045544820746f20766f7465000081525060200191505060405180910390fd5b80600080600154815260200190815260200160002060003373ffffffffffffffffffffffffffffffffffffffff1673ffffffffffffffffffffffffffffffffffffffff16815260200190815260200160002081905550600181141561032157600360008154809291906001019190505550610334565b6002600081548092919060010191905055505b3373ffffffffffffffffffffffffffffffffffffffff166001547fe7ee74ca1f4bb1b82b14f87794c45b3e59c39e372b862fb97a6316b43355b69e836040518082815260200191505060405180910390a350565b60015481565b60025481565b662386f26fc1000081565b6000806000600154815260200190815260200160002060008373ffffffffffffffffffffffffffffffffffffffff1673ffffffffffffffffffffffffffffffffffffffff168152602001908152602001600020549050919050565b60035481565b6001600081548092919060010191905055506000600381905550600060028190555056fe43616e206f6e6c7920766f74652077697468203120286e6f29206f722032202879657329a265627a7a723158208fb83c2187f8b3fdf7f5b95f28c8d908b9ed5812a1f7aca065e24a156db0ffd964736f6c63430005100032",
  "source": "/**\n *Submitted for verification at Etherscan.io on 2020-02-20\n*/\n\npragma solidity ^0.5.16;\n\n/**\n* @title Proposal\n* @dev Allow users to vote on a proposal for yes or no. The user has to pay a fee to vote\n* and can only vote one time on a proposal.\n*/\ncontract Proposal {\n    event VoteCasted(uint256 indexed proposalId, address indexed from, uint256 vote);\n\n    // stores the votes of the users for a proposal. This variable is internal\n    mapping(uint256 => mapping(address => uint256)) internal votes; // 0: didn't vote, 1: voted for no, 2: voted for yes\n    // Id of the current proposal. Initial value is 0. This variable can be accessed externally\n    uint256 public proposalId;\n    // amount of votes for 'yes' for the current proposal. This variable can be accessed externally\n    uint256 public votesForYes;\n    // amount of votes for 'no' for the current proposal. This variable can be accessed externally\n    uint256 public votesForNo;\n    // fee required to perform the vote. This variable can be accessed externally\n    uint256 public constant VOTE_FEE = 0.01 ether; // 10000000000000000 in wei\n\n    /**\n    * @dev Performs a vote for the current proposal.\n    * @param _vote integer representation of the vote\n    */\n    function vote(uint256 _vote) external payable {\n        require(_vote == 1 || _vote == 2, \"Can only vote with 1 (no) or 2 (yes)\");\n//        require(votes[proposalId][msg.sender] == 0, \"Address already voted\");\n        require(msg.value == VOTE_FEE, \"You must send 0.01 ETH to vote\");\n\n        votes[proposalId][msg.sender] = _vote;\n\n        if (_vote == 1) {\n            votesForNo++;\n        } else {\n            votesForYes++;\n        }\n\n        emit VoteCasted(proposalId, msg.sender, _vote);\n    }\n\n    /**\n    * @dev Returns the vote of the user for the current proposal.\n    * @param _user address of the user\n    * @return integer representation of the vote \n    */\n    function getVote(address _user) external view returns(uint256) {\n        return votes[proposalId][_user];\n    }\n\n    /**\n    * @dev Clean the current vote state and creates a new proposal.\n    * This method is useful for developers to start a new proposal for testing purposes.\n    */\n    function clean() external {\n        proposalId++;\n        votesForNo = 0;\n        votesForYes = 0;\n    }\n}\n",
  "sourcePath": "/home/usuario/herramientas/cosillas/Dapp-altoros/src/solidity/contracts/Proposal.sol",
  "compiler": {
    "name": "solc",
    "version": "0.5.16+commit.9c3226ce.Emscripten.clang"
  },
  "schemaVersion": "3.0.23",
  "updatedAt": "2020-03-11T18:18:52.710Z",
  "devdoc": {
    "details": "Allow users to vote on a proposal for yes or no. The user has to pay a fee to vote and can only vote one time on a proposal.",
    "methods": {
      "clean()": {
        "details": "Clean the current vote state and creates a new proposal. This method is useful for developers to start a new proposal for testing purposes."
      },
      "getVote(address)": {
        "details": "Returns the vote of the user for the current proposal.",
        "params": {
          "_user": "address of the user"
        },
        "return": "integer representation of the vote "
      },
      "vote(uint256)": {
        "details": "Performs a vote for the current proposal.",
        "params": {
          "_vote": "integer representation of the vote"
        }
      }
    },
    "title": "Proposal"
  },
  "userdoc": {
    "methods": {}
  }
}